{
  "_format": "hh-sol-artifact-1",
  "contractName": "CertificadosFeria",
  "sourceName": "contracts/CertificadosFeria.sol",
  "abi": [
    {
      "inputs": [],
      "stateMutability": "nonpayable",
      "type": "constructor"
    },
    {
      "inputs": [
        {
          "internalType": "address",
          "name": "owner",
          "type": "address"
        }
      ],
      "name": "OwnableInvalidOwner",
      "type": "error"
    },
    {
      "inputs": [
        {
          "internalType": "address",
          "name": "account",
          "type": "address"
        }
      ],
      "name": "OwnableUnauthorizedAccount",
      "type": "error"
    },
    {
      "anonymous": false,
      "inputs": [
        {
          "indexed": true,
          "internalType": "string",
          "name": "certificadoId",
          "type": "string"
        },
        {
          "indexed": false,
          "internalType": "bytes32",
          "name": "hash",
          "type": "bytes32"
        },
        {
          "indexed": false,
          "internalType": "uint256",
          "name": "timestamp",
          "type": "uint256"
        },
        {
          "indexed": false,
          "internalType": "string",
          "name": "feriaId",
          "type": "string"
        },
        {
          "indexed": false,
          "internalType": "string",
          "name": "proyectoId",
          "type": "string"
        }
      ],
      "name": "CertificadoRegistrado",
      "type": "event"
    },
    {
      "anonymous": false,
      "inputs": [
        {
          "indexed": true,
          "internalType": "string",
          "name": "certificadoId",
          "type": "string"
        },
        {
          "indexed": false,
          "internalType": "uint256",
          "name": "timestamp",
          "type": "uint256"
        }
      ],
      "name": "CertificadoRevocado",
      "type": "event"
    },
    {
      "anonymous": false,
      "inputs": [
        {
          "indexed": true,
          "internalType": "address",
          "name": "previousOwner",
          "type": "address"
        },
        {
          "indexed": true,
          "internalType": "address",
          "name": "newOwner",
          "type": "address"
        }
      ],
      "name": "OwnershipTransferred",
      "type": "event"
    },
    {
      "inputs": [
        {
          "internalType": "uint256",
          "name": "_index",
          "type": "uint256"
        }
      ],
      "name": "obtenerCertificadoPorIndice",
      "outputs": [
        {
          "internalType": "string",
          "name": "",
          "type": "string"
        }
      ],
      "stateMutability": "view",
      "type": "function"
    },
    {
      "inputs": [],
      "name": "owner",
      "outputs": [
        {
          "internalType": "address",
          "name": "",
          "type": "address"
        }
      ],
      "stateMutability": "view",
      "type": "function"
    },
    {
      "inputs": [
        {
          "internalType": "string",
          "name": "_certificadoId",
          "type": "string"
        },
        {
          "internalType": "bytes32",
          "name": "_hash",
          "type": "bytes32"
        },
        {
          "internalType": "string",
          "name": "_feriaId",
          "type": "string"
        },
        {
          "internalType": "string",
          "name": "_proyectoId",
          "type": "string"
        }
      ],
      "name": "registrarCertificado",
      "outputs": [],
      "stateMutability": "nonpayable",
      "type": "function"
    },
    {
      "inputs": [
        {
          "internalType": "string[]",
          "name": "_certificadoIds",
          "type": "string[]"
        },
        {
          "internalType": "bytes32[]",
          "name": "_hashes",
          "type": "bytes32[]"
        },
        {
          "internalType": "string[]",
          "name": "_feriaIds",
          "type": "string[]"
        },
        {
          "internalType": "string[]",
          "name": "_proyectoIds",
          "type": "string[]"
        }
      ],
      "name": "registrarCertificadosLote",
      "outputs": [],
      "stateMutability": "nonpayable",
      "type": "function"
    },
    {
      "inputs": [],
      "name": "renounceOwnership",
      "outputs": [],
      "stateMutability": "nonpayable",
      "type": "function"
    },
    {
      "inputs": [
        {
          "internalType": "string",
          "name": "_certificadoId",
          "type": "string"
        }
      ],
      "name": "revocarCertificado",
      "outputs": [],
      "stateMutability": "nonpayable",
      "type": "function"
    },
    {
      "inputs": [],
      "name": "totalCertificados",
      "outputs": [
        {
          "internalType": "uint256",
          "name": "",
          "type": "uint256"
        }
      ],
      "stateMutability": "view",
      "type": "function"
    },
    {
      "inputs": [
        {
          "internalType": "address",
          "name": "newOwner",
          "type": "address"
        }
      ],
      "name": "transferOwnership",
      "outputs": [],
      "stateMutability": "nonpayable",
      "type": "function"
    },
    {
      "inputs": [
        {
          "internalType": "string",
          "name": "_certificadoId",
          "type": "string"
        }
      ],
      "name": "verificarCertificado",
      "outputs": [
        {
          "internalType": "bytes32",
          "name": "hash",
          "type": "bytes32"
        },
        {
          "internalType": "uint256",
          "name": "timestamp",
          "type": "uint256"
        },
        {
          "internalType": "string",
          "name": "feriaId",
          "type": "string"
        },
        {
          "internalType": "string",
          "name": "proyectoId",
          "type": "string"
        },
        {
          "internalType": "bool",
          "name": "existe",
          "type": "bool"
        },
        {
          "internalType": "bool",
          "name": "revocado",
          "type": "bool"
        }
      ],
      "stateMutability": "view",
      "type": "function"
    }
  ],
  "bytecode": "0x60806040523480156200001157600080fd5b5033600073ffffffffffffffffffffffffffffffffffffffff168173ffffffffffffffffffffffffffffffffffffffff1603620000885760006040517f1e4fbdf70000000000000000000000000000000000000000000000000000000081526004016200007f9190620001a9565b60405180910390fd5b6200009981620000a060201b60201c565b50620001c6565b60008060009054906101000a900473ffffffffffffffffffffffffffffffffffffffff169050816000806101000a81548173ffffffffffffffffffffffffffffffffffffffff021916908373ffffffffffffffffffffffffffffffffffffffff1602179055508173ffffffffffffffffffffffffffffffffffffffff168173ffffffffffffffffffffffffffffffffffffffff167f8be0079c531659141344cd1fd0a4f28419497f9722a3daafe3b4186f6b6457e060405160405180910390a35050565b600073ffffffffffffffffffffffffffffffffffffffff82169050919050565b6000620001918262000164565b9050919050565b620001a38162000184565b82525050565b6000602082019050620001c0600083018462000198565b92915050565b611a7f80620001d66000396000f3fe608060405234801561001057600080fd5b50600436106100935760003560e01c806349e210181161006657806349e210181461013757806370d7cb8d14610153578063715018a61461016f5780638da5cb5b14610179578063f2fde38b1461019757610093565b806302c3bff91461009857806313f732ba146100b657806316fcdf7e146100d2578063371bf8ca14610102575b600080fd5b6100a06101b3565b6040516100ad9190610b8e565b60405180910390f35b6100d060048036038101906100cb9190610d03565b6101c0565b005b6100ec60048036038101906100e79190610d78565b61032e565b6040516100f99190610e24565b60405180910390f35b61011c60048036038101906101179190610d03565b610425565b60405161012e96959493929190610e7a565b60405180910390f35b610151600480360381019061014c9190610f15565b6105fd565b005b61016d60048036038101906101689190611179565b61085f565b005b61017761095f565b005b610181610973565b60405161018e9190611291565b60405180910390f35b6101b160048036038101906101ac91906112d8565b61099c565b005b6000600280549050905090565b6101c8610a22565b6001816040516101d89190611341565b908152602001604051809103902060040160009054906101000a900460ff16610236576040517f08c379a000000000000000000000000000000000000000000000000000000000815260040161022d906113a4565b60405180910390fd5b6001816040516102469190611341565b908152602001604051809103902060040160019054906101000a900460ff16156102a5576040517f08c379a000000000000000000000000000000000000000000000000000000000815260040161029c90611410565b60405180910390fd5b600180826040516102b69190611341565b908152602001604051809103902060040160016101000a81548160ff021916908315150217905550806040516102ec9190611341565b60405180910390207f77367931c3b51e30be0f087f54b9964da28061a96864404ef95992ded6dc15a6426040516103239190610b8e565b60405180910390a250565b60606002805490508210610377576040517f08c379a000000000000000000000000000000000000000000000000000000000815260040161036e9061147c565b60405180910390fd5b6002828154811061038b5761038a61149c565b5b9060005260206000200180546103a0906114fa565b80601f01602080910402602001604051908101604052809291908181526020018280546103cc906114fa565b80156104195780601f106103ee57610100808354040283529160200191610419565b820191906000526020600020905b8154815290600101906020018083116103fc57829003601f168201915b50505050509050919050565b60008060608060008060006001886040516104409190611341565b90815260200160405180910390206040518060c0016040529081600082015481526020016001820154815260200160028201805461047d906114fa565b80601f01602080910402602001604051908101604052809291908181526020018280546104a9906114fa565b80156104f65780601f106104cb576101008083540402835291602001916104f6565b820191906000526020600020905b8154815290600101906020018083116104d957829003601f168201915b5050505050815260200160038201805461050f906114fa565b80601f016020809104026020016040519081016040528092919081815260200182805461053b906114fa565b80156105885780601f1061055d57610100808354040283529160200191610588565b820191906000526020600020905b81548152906001019060200180831161056b57829003601f168201915b505050505081526020016004820160009054906101000a900460ff161515151581526020016004820160019054906101000a900460ff1615151515815250509050806000015181602001518260400151836060015184608001518560a001519650965096509650965096505091939550919395565b610605610a22565b6001846040516106159190611341565b908152602001604051809103902060040160009054906101000a900460ff1615610674576040517f08c379a000000000000000000000000000000000000000000000000000000000815260040161066b90611577565b60405180910390fd5b6000801b83036106b9576040517f08c379a00000000000000000000000000000000000000000000000000000000081526004016106b0906115e3565b60405180910390fd5b60008451116106fd576040517f08c379a00000000000000000000000000000000000000000000000000000000081526004016106f49061164f565b60405180910390fd5b6040518060c00160405280848152602001428152602001838152602001828152602001600115158152602001600015158152506001856040516107409190611341565b908152602001604051809103902060008201518160000155602082015181600101556040820151816002019081610777919061181b565b50606082015181600301908161078d919061181b565b5060808201518160040160006101000a81548160ff02191690831515021790555060a08201518160040160016101000a81548160ff021916908315150217905550905050600284908060018154018082558091505060019003906000526020600020016000909190919091509081610805919061181b565b50836040516108149190611341565b60405180910390207f2f5f01e65a21c84b6e13f2a37252d72a1b6d789fd9dac7b80e07a909037736148442858560405161085194939291906118ed565b60405180910390a250505050565b610867610a22565b82518451148015610879575081518351145b8015610886575080518251145b6108c5576040517f08c379a00000000000000000000000000000000000000000000000000000000081526004016108bc906119b2565b60405180910390fd5b60005b8451811015610958576109458582815181106108e7576108e661149c565b5b60200260200101518583815181106109025761090161149c565b5b602002602001015185848151811061091d5761091c61149c565b5b60200260200101518585815181106109385761093761149c565b5b60200260200101516105fd565b808061095090611a01565b9150506108c8565b5050505050565b610967610a22565b6109716000610aa9565b565b60008060009054906101000a900473ffffffffffffffffffffffffffffffffffffffff16905090565b6109a4610a22565b600073ffffffffffffffffffffffffffffffffffffffff168173ffffffffffffffffffffffffffffffffffffffff1603610a165760006040517f1e4fbdf7000000000000000000000000000000000000000000000000000000008152600401610a0d9190611291565b60405180910390fd5b610a1f81610aa9565b50565b610a2a610b6d565b73ffffffffffffffffffffffffffffffffffffffff16610a48610973565b73ffffffffffffffffffffffffffffffffffffffff1614610aa757610a6b610b6d565b6040517f118cdaa7000000000000000000000000000000000000000000000000000000008152600401610a9e9190611291565b60405180910390fd5b565b60008060009054906101000a900473ffffffffffffffffffffffffffffffffffffffff169050816000806101000a81548173ffffffffffffffffffffffffffffffffffffffff021916908373ffffffffffffffffffffffffffffffffffffffff1602179055508173ffffffffffffffffffffffffffffffffffffffff168173ffffffffffffffffffffffffffffffffffffffff167f8be0079c531659141344cd1fd0a4f28419497f9722a3daafe3b4186f6b6457e060405160405180910390a35050565b600033905090565b6000819050919050565b610b8881610b75565b82525050565b6000602082019050610ba36000830184610b7f565b92915050565b6000604051905090565b600080fd5b600080fd5b600080fd5b600080fd5b6000601f19601f8301169050919050565b7f4e487b7100000000000000000000000000000000000000000000000000000000600052604160045260246000fd5b610c1082610bc7565b810181811067ffffffffffffffff82111715610c2f57610c2e610bd8565b5b80604052505050565b6000610c42610ba9565b9050610c4e8282610c07565b919050565b600067ffffffffffffffff821115610c6e57610c6d610bd8565b5b610c7782610bc7565b9050602081019050919050565b82818337600083830152505050565b6000610ca6610ca184610c53565b610c38565b905082815260208101848484011115610cc257610cc1610bc2565b5b610ccd848285610c84565b509392505050565b600082601f830112610cea57610ce9610bbd565b5b8135610cfa848260208601610c93565b91505092915050565b600060208284031215610d1957610d18610bb3565b5b600082013567ffffffffffffffff811115610d3757610d36610bb8565b5b610d4384828501610cd5565b91505092915050565b610d5581610b75565b8114610d6057600080fd5b50565b600081359050610d7281610d4c565b92915050565b600060208284031215610d8e57610d8d610bb3565b5b6000610d9c84828501610d63565b91505092915050565b600081519050919050565b600082825260208201905092915050565b60005b83811015610ddf578082015181840152602081019050610dc4565b60008484015250505050565b6000610df682610da5565b610e008185610db0565b9350610e10818560208601610dc1565b610e1981610bc7565b840191505092915050565b60006020820190508181036000830152610e3e8184610deb565b905092915050565b6000819050919050565b610e5981610e46565b82525050565b60008115159050919050565b610e7481610e5f565b82525050565b600060c082019050610e8f6000830189610e50565b610e9c6020830188610b7f565b8181036040830152610eae8187610deb565b90508181036060830152610ec28186610deb565b9050610ed16080830185610e6b565b610ede60a0830184610e6b565b979650505050505050565b610ef281610e46565b8114610efd57600080fd5b50565b600081359050610f0f81610ee9565b92915050565b60008060008060808587031215610f2f57610f2e610bb3565b5b600085013567ffffffffffffffff811115610f4d57610f4c610bb8565b5b610f5987828801610cd5565b9450506020610f6a87828801610f00565b935050604085013567ffffffffffffffff811115610f8b57610f8a610bb8565b5b610f9787828801610cd5565b925050606085013567ffffffffffffffff811115610fb857610fb7610bb8565b5b610fc487828801610cd5565b91505092959194509250565b600067ffffffffffffffff821115610feb57610fea610bd8565b5b602082029050602081019050919050565b600080fd5b600061101461100f84610fd0565b610c38565b9050808382526020820190506020840283018581111561103757611036610ffc565b5b835b8181101561107e57803567ffffffffffffffff81111561105c5761105b610bbd565b5b8086016110698982610cd5565b85526020850194505050602081019050611039565b5050509392505050565b600082601f83011261109d5761109c610bbd565b5b81356110ad848260208601611001565b91505092915050565b600067ffffffffffffffff8211156110d1576110d0610bd8565b5b602082029050602081019050919050565b60006110f56110f0846110b6565b610c38565b9050808382526020820190506020840283018581111561111857611117610ffc565b5b835b81811015611141578061112d8882610f00565b84526020840193505060208101905061111a565b5050509392505050565b600082601f8301126111605761115f610bbd565b5b81356111708482602086016110e2565b91505092915050565b6000806000806080858703121561119357611192610bb3565b5b600085013567ffffffffffffffff8111156111b1576111b0610bb8565b5b6111bd87828801611088565b945050602085013567ffffffffffffffff8111156111de576111dd610bb8565b5b6111ea8782880161114b565b935050604085013567ffffffffffffffff81111561120b5761120a610bb8565b5b61121787828801611088565b925050606085013567ffffffffffffffff81111561123857611237610bb8565b5b61124487828801611088565b91505092959194509250565b600073ffffffffffffffffffffffffffffffffffffffff82169050919050565b600061127b82611250565b9050919050565b61128b81611270565b82525050565b60006020820190506112a66000830184611282565b92915050565b6112b581611270565b81146112c057600080fd5b50565b6000813590506112d2816112ac565b92915050565b6000602082840312156112ee576112ed610bb3565b5b60006112fc848285016112c3565b91505092915050565b600081905092915050565b600061131b82610da5565b6113258185611305565b9350611335818560208601610dc1565b80840191505092915050565b600061134d8284611310565b915081905092915050565b7f436572746966696361646f206e6f206578697374650000000000000000000000600082015250565b600061138e601583610db0565b915061139982611358565b602082019050919050565b600060208201905081810360008301526113bd81611381565b9050919050565b7f436572746966696361646f207961207265766f6361646f000000000000000000600082015250565b60006113fa601783610db0565b9150611405826113c4565b602082019050919050565b60006020820190508181036000830152611429816113ed565b9050919050565b7f496e646963652066756572612064652072616e676f0000000000000000000000600082015250565b6000611466601583610db0565b915061147182611430565b602082019050919050565b6000602082019050818103600083015261149581611459565b9050919050565b7f4e487b7100000000000000000000000000000000000000000000000000000000600052603260045260246000fd5b7f4e487b7100000000000000000000000000000000000000000000000000000000600052602260045260246000fd5b6000600282049050600182168061151257607f821691505b602082108103611525576115246114cb565b5b50919050565b7f436572746966696361646f207961206578697374650000000000000000000000600082015250565b6000611561601583610db0565b915061156c8261152b565b602082019050919050565b6000602082019050818103600083015261159081611554565b9050919050565b7f4861736820696e76616c69646f00000000000000000000000000000000000000600082015250565b60006115cd600d83610db0565b91506115d882611597565b602082019050919050565b600060208201905081810360008301526115fc816115c0565b9050919050565b7f494420696e76616c69646f000000000000000000000000000000000000000000600082015250565b6000611639600b83610db0565b915061164482611603565b602082019050919050565b600060208201905081810360008301526116688161162c565b9050919050565b60008190508160005260206000209050919050565b60006020601f8301049050919050565b600082821b905092915050565b6000600883026116d17fffffffffffffffffffffffffffffffffffffffffffffffffffffffffffffffff82611694565b6116db8683611694565b95508019841693508086168417925050509392505050565b6000819050919050565b600061171861171361170e84610b75565b6116f3565b610b75565b9050919050565b6000819050919050565b611732836116fd565b61174661173e8261171f565b8484546116a1565b825550505050565b600090565b61175b61174e565b611766818484611729565b505050565b5b8181101561178a5761177f600082611753565b60018101905061176c565b5050565b601f8211156117cf576117a08161166f565b6117a984611684565b810160208510156117b8578190505b6117cc6117c485611684565b83018261176b565b50505b505050565b600082821c905092915050565b60006117f2600019846008026117d4565b1980831691505092915050565b600061180b83836117e1565b9150826002028217905092915050565b61182482610da5565b67ffffffffffffffff81111561183d5761183c610bd8565b5b61184782546114fa565b61185282828561178e565b600060209050601f8311600181146118855760008415611873578287015190505b61187d85826117ff565b8655506118e5565b601f1984166118938661166f565b60005b828110156118bb57848901518255600182019150602085019450602081019050611896565b868310156118d857848901516118d4601f8916826117e1565b8355505b6001600288020188555050505b505050505050565b60006080820190506119026000830187610e50565b61190f6020830186610b7f565b81810360408301526119218185610deb565b905081810360608301526119358184610deb565b905095945050505050565b7f41727261797320646562656e2074656e6572206c61206d69736d61206c6f6e6760008201527f6974756400000000000000000000000000000000000000000000000000000000602082015250565b600061199c602483610db0565b91506119a782611940565b604082019050919050565b600060208201905081810360008301526119cb8161198f565b9050919050565b7f4e487b7100000000000000000000000000000000000000000000000000000000600052601160045260246000fd5b6000611a0c82610b75565b91507fffffffffffffffffffffffffffffffffffffffffffffffffffffffffffffffff8203611a3e57611a3d6119d2565b5b60018201905091905056fea2646970667358221220ce308d399a4faf294acb216df60b76d9ac88e5253739039779b9b4b1f8c91d5864736f6c63430008140033",
  "linkReferences": {},
  "deployedLinkReferences": {}
}